:04000000FEEF7FF0A0
:10FE5A0007C505F508C506F5120007C503F508C567
:10FE6A0004F5120007C501F508C502F51200000ED7
:10FE7A00F86E000141EF7FF047EC7FF043EF7FF02F
:10FE8A00FEEF7FF050EC7FF095EC7FF061EC7FF0B5
:10FE9A007BEC7FF01200600E0001AD6F400EAF6F79
:10FEAA00000EB36F080EB16F000EB06F400EAC6F4C
:10FEBA00000E0401586F1200000E0001D56F000EEB
:10FECA00D76F000ED86F000ED96F000EDA6F010ED1
:10FEDA00DB6F020EDC6F000EDD6F000EDE6F800E30
:10FEEA00DF6F000ED46F830ED66F1200D69AB390CE
:10FEFA00D680000E076E000E086E2DEC7FF0B890CB
:10FF0A00D682000E076E000E086E32EC7FF0BC90AF
:10FF1A00D684000E076E000E086E37EC7FF01200D2
:10FF2A00000E0101406F000E416F000E426F000E7D
:10FF3A00436F000E446FFB0E486F49694A694B696B
:10FF4A000F0E4C6FF80E0401006F086910691869EA
:10FF5A00070E206F000E016F000E096F000E116F61
:10FF6A00000E196F000E216F000E026F000E0A6F4D
:10FF7A00000E126F000E1A6F000E226F03690B69D2
:10FF8A0013691B69070E236F04690C6914691C69DC
:10FF9A000F0E246F000E0201866F000E856F000E91
:10FFAA00886F000E876F000E616F010E626F010E7F
:10FFBA00036F000E0401056F000E066F000E076F37
:10FFCA00000E3D6F000E3E6F000E3F6F000E0D6F6C
:10FFDA00000E0E6F000E0F6F000E156F000E166FDB
:10FFEA00000E176F000E256F000E266F000E276F8A
:06FFFA0012003CEF7FF055
:020000040030CA
:0B0000008CFFF7FF9FFF7FFFFFFFFF5B
:00000001FF
