:040000005DEF00F0C0
:100008002E002E002E002E002E002E002E002E0078
:100018002E0026022E002E002E002E002E002E006E
:100028002E002E002E002E002E002E002E002E0058
:100038002E002E002E002E002E002E002E002E0048
:100048002E002E002E002E002E002E002E002E0038
:100058002E002E002E002E002E002E002E002E0028
:100068002E002E002E002E002E002E002E002E0018
:100078002E002E002E002E002E002E002E002E0008
:100088002E002E002E002E002E002E002E002E00F8
:100098002E002E002E002E002E002E002E002E00E8
:1000A8002E002E002E002E002E002E002E002E00D8
:1000B800FF002AEF04F00450800B0D6E0450042456
:1000C800136E03AE6AEF00F06CEF00F06DEF00F016
:1000D80013801350D8B473EF00F075EF00F088EF79
:1000E80000F01328D8A47BEF00F07DEF00F085EF37
:1000F80000F0000E016E000E026E000E036E000E80
:10010800046E038E90EF00F0000E016E000E026E7A
:10011800000E036E000E046E0850800B0D1A085076
:100128000824126E07AE9BEF00F09DEF00F09EEFE3
:1001380000F012801250D8B4A4EF00F0A6EF00F03F
:10014800B9EF00F01228D8A4ACEF00F0AEEF00F041
:10015800B6EF00F0000E056E000E066E000E076E7C
:10016800000E086E078EC1EF00F0000E056E000E3F
:10017800066E000E076E000E086E1250D8B4C7EF58
:1001880000F0C9EF00F0D1EF00F01350D8A4CFEF82
:1001980000F0D1EF00F0DBEF00F0000E016E000E72
:1001A800026E000E036E000E046E73EF02F007502D
:1001B8000102F3C418F5F4C419F518500E6E0F6A4D
:1001C800106A116A1950146E156A166A176A065071
:1001D8000202F3C418F5F4C419F518500E26000EDF
:1001E8000F221022112219501426000E1522162251
:1001F800172205500302F3C418F5F4C419F5185072
:100208000E26000E0F221022112219501426000E5D
:1002180015221622172210C511F50FC510F50EC5A7
:100228000FF50E6A05500202F3C418F5F4C419F567
:1002380018500E2619500F22000E1022000E1122FF
:1002480006500102F3C418F5F4C419F518500E2627
:1002580019500F22000E1022000E112210C511F5A0
:100268000FC510F50EC50FF50E6A05500102F3C44F
:1002780018F5F4C419F518500E2619500F22000E5F
:100288001022000E112207500202F3C418F5F4C41C
:1002980019F51850142619501522000E1622000EB2
:1002A800172206500302F3C418F5F4C419F51850C0
:1002B800142619501522000E1622000E1722075078
:1002C8000302F3C418F5F4C419F51850096E19504F
:1002D8000A6E0B6A0C6A0BC50CF50AC50BF509C545
:1002E8000AF5096A095014260A5015220B501622DD
:1002F8000C5017220EC509F50FC50AF510C50BF5E8
:1003080011C50CF5190E8EEF01F0D8900C320B3296
:100318000A320932E82E89EF01F0095014260A50F2
:1003280015220B5016220C50172210C511F50FC5B7
:1003380010F50EC50FF50E6A125013C509F50A6AB5
:100348000926000E0A22820E0924186EFF0E0A20C2
:10035800196EC4EF01F0D8901436153616361736D4
:1003680011AEB9EF01F0BBEF01F0BCEF01F0148062
:10037800D8900E360F36103611361806D8A0190642
:1003880016AEC9EF01F0CBEF01F0AFEF01F0000EB0
:10039800126E11AED2EF01F0D4EF01F0F8EF01F0D8
:1003A800FF0E0E14096EFF0E0F140A6EFF0E1014C6
:1003B8000B6E7F0E11140C6E09500A100B100C10E6
:1003C800D8B4E9EF01F0EBEF01F0EFEF01F0010E27
:1003D800126EF8EF01F014A0F4EF01F0F6EF01F05F
:1003E800F8EF01F0EBEF01F01250D8B4FEEF01F096
:1003F80000EF02F024EF02F0010E1426000E152281
:100408001622172217A00BEF02F00DEF02F024EFCF
:1004180002F014C509F515C50AF516C50BF517C57B
:100428000CF50C340C320B320A32093209C514F5BA
:100438000AC515F50BC516F50CC517F5184A192A7E
:1004480019BE2FEF02F0195008E11828D8A02FEF95
:1004580002F031EF02F03BEF02F0000E146E000ED6
:10046800156E800E166E7F0E176E69EF02F019BEBC
:1004780048EF02F0195006E11804D8B046EF02F030
:1004880048EF02F054EF02F0000E146E000E156EE5
:10049800000E166E000E176E000E0D6E69EF02F05C
:1004A80018C513F5FF0E1416FF0E15167F0E161637
:1004B800000E171613A063EF02F065EF02F066EF67
:1004C80002F0168ED8901330176E0D50171214C5FF
:1004D80001F515C502F516C503F517C504F5120093
:1004E8001C341D34236E2350D8A47DEF02F07FEF17
:1004F80002F089EF02F0000E1A6E000E1B6E000E5D
:100508001C6E000E1D6EF6EF02F01AC51EF51BC517
:100518001FF51CC520F51DC521F5200E99EF02F029
:10052800D890213220321F321E32E82E94EF02F08A
:100538001E50226E1C8EFF0E1A16FF0E1B16FF0E83
:100548001C16000E1D16960E235E23BEB0EF02F099
:10055800AEEF02F0C6EF02F02350800A970FD8B032
:10056800B8EF02F0BAEF02F0BCEF02F07FEF02F052
:10057800D8901D321C321B321A32233EBCEF02F0D7
:10058800DEEF02F01F0E2364CCEF02F0CEEF02F094
:10059800D6EF02F07FEF02F0D8901A361B361C36E1
:1005A8001D3623062350D8A4DCEF02F0DEEF02F05C
:1005B800D0EF02F02250D8B4E4EF02F0E6EF02F0F8
:1005C800EEEF02F01D1E1C1E1B1E1A6C000E1B22D5
:1005D8001C221D221AC51AF51BC51BF51CC51CF5C6
:1005E8001DC51DF5120001014D9B4D9D4D9F040138
:1005F800289B289D289F0101458B458D459F1FEC11
:1006080004F034EC04F047EC04F0000E266E000E03
:10061800276EC80E286E420E296E55EC03F0000EA8
:10062800246E000E256E200E266E410E276E78EC85
:1006380003F0290E2B6E960E2A6E7F0EE82EFED73B
:100648002A2EFCD72B2EFAD700F0FCEC03F011EC85
:1006580004F0B8EC03F098EC03F0E6EC03F0D0EC0F
:1006680003F00101458D090E2B6E1E0E2A6EE40E55
:10067800E82EFED72A2EFCD72B2EFAD700D0010160
:10068800459D090E2B6E1E0E2A6EE40EE82EFED72F
:100698002A2EFCD72B2EFAD700D035EF03F05DEFCA
:1006A80000F0000E056EDC0E066E8F0E076E3F0E14
:1006B800086E26C501F527C502F528C503F529C525
:1006C80004F55FEC00F001C51AF502C51BF503C57A
:1006D8001CF504C51DF574EC02F01AC524F51BC5FC
:1006E80025F53CEC04F01200000E056E660E066E51
:1006F800990E076E400E086E24C501F525C502F552
:1007080026C503F527C504F55FEC00F001C51AF509
:1007180002C51BF503C51CF504C51DF574EC02F0F4
:100728001A5043EC04F01200010E0001D56F000EC0
:10073800D76F200ED86F250ED96F250EDA6F0D0EE4
:10074800DB6F800EDC6F000EDD6F010EDE6F080EB2
:10075800DF6F0401288F01014D9F020E02012C6FEB
:10076800850E0001D66F1200000E0001D56F000E35
:10077800D76F140ED86F140ED96F200EDA6F210EB2
:10078800DB6F020EDC6F000EDD6F100EDE6F400EA9
:10079800DF6F830ED66F12000C0E0001756F030E0B
:1007A800766F0101498304010883030E0001776F06
:1007B800800E746F75AFE3EF03F0E5EF03F0DEEF43
:1007C80003F012000C0E0001716F010E726F01012F
:1007D800488304010083040E0001736F800E706F5C
:1007E80071AFF9EF03F0FBEF03F0F4EF03F0120041
:1007F800D68AD69E550E0401596FAA0E596F599183
:10080800000E5F6F000E5E6F080E5D6F550E596F1C
:10081800AA0E596F5981D68E1200000E03011D6F62
:10082800A00E1E6F000E206F010E216F000E226FAA
:10083800800E1F6F12008F0E0301D76FD7AD27EF01
:1008480004F029EF04F022EF04F012000401080E6E
:100858005D6F000E5E6F000E5F6F0001F7EF02F034
:100868000101488504010085980E00017F6F120080
:100878002550030B00017E6F24C57DF01200016E28
:0E08880001C5C0F01200880E0001C26F120000
:04089800B392110006
:020000040030CA
:0B0000008C17FFFF9FFF00FFF8FEFEC3
:00000001FF
